{
  "_format": "hh-sol-artifact-1",
  "contractName": "TalentShareToken",
  "sourceName": "contracts/TalentShareToken.sol",
  "abi": [
    {
      "inputs": [],
      "stateMutability": "nonpayable",
      "type": "constructor"
    },
    {
      "inputs": [
        {
          "internalType": "address",
          "name": "sender",
          "type": "address"
        },
        {
          "internalType": "uint256",
          "name": "balance",
          "type": "uint256"
        },
        {
          "internalType": "uint256",
          "name": "needed",
          "type": "uint256"
        },
        {
          "internalType": "uint256",
          "name": "tokenId",
          "type": "uint256"
        }
      ],
      "name": "ERC1155InsufficientBalance",
      "type": "error"
    },
    {
      "inputs": [
        {
          "internalType": "address",
          "name": "approver",
          "type": "address"
        }
      ],
      "name": "ERC1155InvalidApprover",
      "type": "error"
    },
    {
      "inputs": [
        {
          "internalType": "uint256",
          "name": "idsLength",
          "type": "uint256"
        },
        {
          "internalType": "uint256",
          "name": "valuesLength",
          "type": "uint256"
        }
      ],
      "name": "ERC1155InvalidArrayLength",
      "type": "error"
    },
    {
      "inputs": [
        {
          "internalType": "address",
          "name": "operator",
          "type": "address"
        }
      ],
      "name": "ERC1155InvalidOperator",
      "type": "error"
    },
    {
      "inputs": [
        {
          "internalType": "address",
          "name": "receiver",
          "type": "address"
        }
      ],
      "name": "ERC1155InvalidReceiver",
      "type": "error"
    },
    {
      "inputs": [
        {
          "internalType": "address",
          "name": "sender",
          "type": "address"
        }
      ],
      "name": "ERC1155InvalidSender",
      "type": "error"
    },
    {
      "inputs": [
        {
          "internalType": "address",
          "name": "operator",
          "type": "address"
        },
        {
          "internalType": "address",
          "name": "owner",
          "type": "address"
        }
      ],
      "name": "ERC1155MissingApprovalForAll",
      "type": "error"
    },
    {
      "inputs": [
        {
          "internalType": "address",
          "name": "owner",
          "type": "address"
        }
      ],
      "name": "OwnableInvalidOwner",
      "type": "error"
    },
    {
      "inputs": [
        {
          "internalType": "address",
          "name": "account",
          "type": "address"
        }
      ],
      "name": "OwnableUnauthorizedAccount",
      "type": "error"
    },
    {
      "inputs": [
        {
          "internalType": "uint256",
          "name": "value",
          "type": "uint256"
        },
        {
          "internalType": "uint256",
          "name": "length",
          "type": "uint256"
        }
      ],
      "name": "StringsInsufficientHexLength",
      "type": "error"
    },
    {
      "anonymous": false,
      "inputs": [
        {
          "indexed": true,
          "internalType": "address",
          "name": "account",
          "type": "address"
        },
        {
          "indexed": true,
          "internalType": "address",
          "name": "operator",
          "type": "address"
        },
        {
          "indexed": false,
          "internalType": "bool",
          "name": "approved",
          "type": "bool"
        }
      ],
      "name": "ApprovalForAll",
      "type": "event"
    },
    {
      "anonymous": false,
      "inputs": [
        {
          "indexed": true,
          "internalType": "address",
          "name": "previousOwner",
          "type": "address"
        },
        {
          "indexed": true,
          "internalType": "address",
          "name": "newOwner",
          "type": "address"
        }
      ],
      "name": "OwnershipTransferred",
      "type": "event"
    },
    {
      "anonymous": false,
      "inputs": [
        {
          "indexed": true,
          "internalType": "address",
          "name": "operator",
          "type": "address"
        },
        {
          "indexed": true,
          "internalType": "address",
          "name": "from",
          "type": "address"
        },
        {
          "indexed": true,
          "internalType": "address",
          "name": "to",
          "type": "address"
        },
        {
          "indexed": false,
          "internalType": "uint256[]",
          "name": "ids",
          "type": "uint256[]"
        },
        {
          "indexed": false,
          "internalType": "uint256[]",
          "name": "values",
          "type": "uint256[]"
        }
      ],
      "name": "TransferBatch",
      "type": "event"
    },
    {
      "anonymous": false,
      "inputs": [
        {
          "indexed": true,
          "internalType": "address",
          "name": "operator",
          "type": "address"
        },
        {
          "indexed": true,
          "internalType": "address",
          "name": "from",
          "type": "address"
        },
        {
          "indexed": true,
          "internalType": "address",
          "name": "to",
          "type": "address"
        },
        {
          "indexed": false,
          "internalType": "uint256",
          "name": "id",
          "type": "uint256"
        },
        {
          "indexed": false,
          "internalType": "uint256",
          "name": "value",
          "type": "uint256"
        }
      ],
      "name": "TransferSingle",
      "type": "event"
    },
    {
      "anonymous": false,
      "inputs": [
        {
          "indexed": false,
          "internalType": "string",
          "name": "value",
          "type": "string"
        },
        {
          "indexed": true,
          "internalType": "uint256",
          "name": "id",
          "type": "uint256"
        }
      ],
      "name": "URI",
      "type": "event"
    },
    {
      "inputs": [
        {
          "internalType": "address",
          "name": "account",
          "type": "address"
        },
        {
          "internalType": "uint256",
          "name": "id",
          "type": "uint256"
        }
      ],
      "name": "balanceOf",
      "outputs": [
        {
          "internalType": "uint256",
          "name": "",
          "type": "uint256"
        }
      ],
      "stateMutability": "view",
      "type": "function"
    },
    {
      "inputs": [
        {
          "internalType": "address[]",
          "name": "accounts",
          "type": "address[]"
        },
        {
          "internalType": "uint256[]",
          "name": "ids",
          "type": "uint256[]"
        }
      ],
      "name": "balanceOfBatch",
      "outputs": [
        {
          "internalType": "uint256[]",
          "name": "",
          "type": "uint256[]"
        }
      ],
      "stateMutability": "view",
      "type": "function"
    },
    {
      "inputs": [
        {
          "internalType": "address",
          "name": "account",
          "type": "address"
        },
        {
          "internalType": "address",
          "name": "operator",
          "type": "address"
        }
      ],
      "name": "isApprovedForAll",
      "outputs": [
        {
          "internalType": "bool",
          "name": "",
          "type": "bool"
        }
      ],
      "stateMutability": "view",
      "type": "function"
    },
    {
      "inputs": [
        {
          "internalType": "address",
          "name": "to",
          "type": "address"
        },
        {
          "internalType": "uint256",
          "name": "id",
          "type": "uint256"
        },
        {
          "internalType": "uint256",
          "name": "amount",
          "type": "uint256"
        },
        {
          "internalType": "bytes",
          "name": "data",
          "type": "bytes"
        }
      ],
      "name": "mint",
      "outputs": [],
      "stateMutability": "nonpayable",
      "type": "function"
    },
    {
      "inputs": [],
      "name": "name",
      "outputs": [
        {
          "internalType": "string",
          "name": "",
          "type": "string"
        }
      ],
      "stateMutability": "view",
      "type": "function"
    },
    {
      "inputs": [],
      "name": "owner",
      "outputs": [
        {
          "internalType": "address",
          "name": "",
          "type": "address"
        }
      ],
      "stateMutability": "view",
      "type": "function"
    },
    {
      "inputs": [],
      "name": "renounceOwnership",
      "outputs": [],
      "stateMutability": "nonpayable",
      "type": "function"
    },
    {
      "inputs": [
        {
          "internalType": "address",
          "name": "from",
          "type": "address"
        },
        {
          "internalType": "address",
          "name": "to",
          "type": "address"
        },
        {
          "internalType": "uint256[]",
          "name": "ids",
          "type": "uint256[]"
        },
        {
          "internalType": "uint256[]",
          "name": "values",
          "type": "uint256[]"
        },
        {
          "internalType": "bytes",
          "name": "data",
          "type": "bytes"
        }
      ],
      "name": "safeBatchTransferFrom",
      "outputs": [],
      "stateMutability": "nonpayable",
      "type": "function"
    },
    {
      "inputs": [
        {
          "internalType": "address",
          "name": "from",
          "type": "address"
        },
        {
          "internalType": "address",
          "name": "to",
          "type": "address"
        },
        {
          "internalType": "uint256",
          "name": "id",
          "type": "uint256"
        },
        {
          "internalType": "uint256",
          "name": "value",
          "type": "uint256"
        },
        {
          "internalType": "bytes",
          "name": "data",
          "type": "bytes"
        }
      ],
      "name": "safeTransferFrom",
      "outputs": [],
      "stateMutability": "nonpayable",
      "type": "function"
    },
    {
      "inputs": [
        {
          "internalType": "address",
          "name": "operator",
          "type": "address"
        },
        {
          "internalType": "bool",
          "name": "approved",
          "type": "bool"
        }
      ],
      "name": "setApprovalForAll",
      "outputs": [],
      "stateMutability": "nonpayable",
      "type": "function"
    },
    {
      "inputs": [
        {
          "internalType": "string",
          "name": "newuri",
          "type": "string"
        }
      ],
      "name": "setURI",
      "outputs": [],
      "stateMutability": "nonpayable",
      "type": "function"
    },
    {
      "inputs": [
        {
          "internalType": "uint256",
          "name": "",
          "type": "uint256"
        }
      ],
      "name": "shareData",
      "outputs": [
        {
          "internalType": "string",
          "name": "talentName",
          "type": "string"
        },
        {
          "internalType": "uint256",
          "name": "equityPercent",
          "type": "uint256"
        },
        {
          "internalType": "uint256",
          "name": "investmentAmount",
          "type": "uint256"
        },
        {
          "internalType": "address",
          "name": "campaignAddress",
          "type": "address"
        }
      ],
      "stateMutability": "view",
      "type": "function"
    },
    {
      "inputs": [
        {
          "internalType": "bytes4",
          "name": "interfaceId",
          "type": "bytes4"
        }
      ],
      "name": "supportsInterface",
      "outputs": [
        {
          "internalType": "bool",
          "name": "",
          "type": "bool"
        }
      ],
      "stateMutability": "view",
      "type": "function"
    },
    {
      "inputs": [],
      "name": "symbol",
      "outputs": [
        {
          "internalType": "string",
          "name": "",
          "type": "string"
        }
      ],
      "stateMutability": "view",
      "type": "function"
    },
    {
      "inputs": [
        {
          "internalType": "address",
          "name": "newOwner",
          "type": "address"
        }
      ],
      "name": "transferOwnership",
      "outputs": [],
      "stateMutability": "nonpayable",
      "type": "function"
    },
    {
      "inputs": [
        {
          "internalType": "uint256",
          "name": "tokenId",
          "type": "uint256"
        }
      ],
      "name": "uri",
      "outputs": [
        {
          "internalType": "string",
          "name": "",
          "type": "string"
        }
      ],
      "stateMutability": "view",
      "type": "function"
    }
  ],
  "bytecode": "0x608034620001ca5760208101906001600160401b03821181831017620001b6575f916040525262000032600254620001ce565b601f9081811162000176575b505f60025533156200015e5760038054336001600160a01b0319821681179092556001600160a01b03167f8be0079c531659141344cd1fd0a4f28419497f9722a3daafe3b4186f6b6457e05f80a362000099600454620001ce565b8181116200011e575b507f54616c656e7420536861726520546f6b656e0000000000000000000000000024600455600554620000d590620001ce565b818111620000fb575b6006621514d560ea1b01600555604051611e169081620002228239f35b620001169160055f5260205f20910160051c81019062000209565b5f80620000de565b60045f526200015790820160051c7f8a35acfbc15ff81a39ae7d344fd709f28e8600b4aa8c65c6b64bfe7fe36bd19b9081019062000209565b5f620000a2565b604051631e4fbdf760e01b81525f6004820152602490fd5b60025f52620001af90820160051c7f405787fa12a823e0f2b7631cc41b3ba8828b3321ca811111fa75cd3aa3bb5ace9081019062000209565b5f6200003e565b634e487b7160e01b5f52604160045260245ffd5b5f80fd5b90600182811c92168015620001fe575b6020831014620001ea57565b634e487b7160e01b5f52602260045260245ffd5b91607f1691620001de565b81811062000215575050565b5f81556001016200020956fe60806040526004361015610011575f80fd5b5f3560e01c8062fdd58e1461011357806301ffc9a71461010e57806302fe53051461010957806306fdde03146101045780630e89341c146100ff5780632eb2c2d6146100fa57806347e154e2146100f55780634e1273f4146100f0578063715018a6146100eb578063731133e9146100e65780638da5cb5b146100e157806395d89b41146100dc578063a22cb465146100d7578063e985e9c5146100d2578063f242432a146100cd5763f2fde38b146100c8575f80fd5b6111d3565b61111f565b6110c3565b610ff7565b610f52565b610f2a565b610d78565b610d1d565b610c62565b610bb0565b610952565b6105f3565b610513565b6102b1565b6101b6565b61015c565b600435906001600160a01b038216820361012e57565b5f80fd5b602435906001600160a01b038216820361012e57565b35906001600160a01b038216820361012e57565b3461012e57604036600319011261012e57602061019b61017a610118565b6024355f525f835260405f209060018060a01b03165f5260205260405f2090565b54604051908152f35b6001600160e01b031981160361012e57565b3461012e57602036600319011261012e5760206004356101d5816101a4565b63ffffffff60e01b16636cdb3d1360e11b8114908115610213575b8115610202575b506040519015158152f35b6301ffc9a760e01b1490505f6101f7565b6303a24d0760e21b811491506101f0565b634e487b7160e01b5f52604160045260245ffd5b90601f8019910116810190811067ffffffffffffffff82111761025a57604052565b610224565b67ffffffffffffffff811161025a57601f01601f191660200190565b9291926102878261025f565b916102956040519384610238565b82948184528183011161012e578281602093845f960137010152565b3461012e5760208060031936011261012e5767ffffffffffffffff60043581811161012e573660238201121561012e576102f590369060248160040135910161027b565b916102fe61141d565b825191821161025a5761031b826103166002546103df565b611449565b602090601f831160011461035b5750819061034b935f92610350575b50508160011b915f199060031b1c19161790565b600255005b015190505f80610337565b90601f1983169361038d60025f527f405787fa12a823e0f2b7631cc41b3ba8828b3321ca811111fa75cd3aa3bb5ace90565b925f905b8682106103c757505083600195106103af575b505050811b01600255005b01515f1960f88460031b161c191690555f80806103a4565b80600185968294968601518155019501930190610391565b90600182811c9216801561040d575b60208310146103f957565b634e487b7160e01b5f52602260045260245ffd5b91607f16916103ee565b9060405191825f8254610429816103df565b908184526020946001916001811690815f146104975750600114610459575b50505061045792500383610238565b565b5f90815285812095935091905b81831061047f57505061045793508201015f8080610448565b85548884018501529485019487945091830191610466565b9250505061045794925060ff191682840152151560051b8201015f8080610448565b5f5b8381106104ca5750505f910152565b81810151838201526020016104bb565b906020916104f3815180928185528580860191016104b9565b601f01601f1916010190565b9060206105109281815201906104da565b90565b3461012e575f36600319011261012e576040515f600454610533816103df565b808452906020906001908181169081156105c95750600114610570575b61056c8561056081870382610238565b604051918291826104ff565b0390f35b60045f90815293507f8a35acfbc15ff81a39ae7d344fd709f28e8600b4aa8c65c6b64bfe7fe36bd19b5b8385106105b6575050505081016020016105608261056c610550565b805486860184015293820193810161059a565b86955061056c9693506020925061056094915060ff191682840152151560051b8201019293610550565b3461012e57602036600319011261012e57600435610619815f52600660205260405f2090565b6106229061125f565b9061062c90611535565b815191602081015161063d90611535565b90604081015161064c90611535565b60609190910151610665906001600160a01b03166116fd565b604051693d913730b6b2911d101160b11b602082015294859491939161068d602a87016112b2565b61202360f01b81526002016106a19161133e565b6201116160ed1b81526003017f226465736372697074696f6e223a20224120736861726520696e20746865206681527103aba3ab9329032b0b93734b733b99037b3160751b60208201526032016106f8908261133e565b630171116160e51b81526004016e2261747472696275746573223a205b60881b8152600f017f7b2274726169745f74797065223a202254616c656e74222c202276616c7565228152621d101160e91b60208201526023016107589161133e565b62089f4b60ea1b81526003017f7b2274726169745f74797065223a2022457175697479222c202276616c7565228152621d101160e91b602082015260230161079f9161133e565b62089f4b60ea1b81526003017f7b2274726169745f74797065223a2022496e766573746d656e74222c20227661815266363ab2911d101160c91b60208201526027016107ea9161133e565b62089f4b60ea1b81526003017f7b2274726169745f74797065223a202243616d706169676e222c202276616c7581526432911d101160d91b60208201526025016108339161133e565b61227d60f01b8152600201615d7d60f01b81526002010390601f1991828101825261085e9082610238565b61086790611804565b6040517f646174613a6170706c69636174696f6e2f6a736f6e3b6261736536342c000000602082015291908290603d82016108a19161133e565b0390810182526108b19082610238565b60405161056c8192826104ff565b67ffffffffffffffff811161025a5760051b60200190565b9080601f8301121561012e5760209082356108f1816108bf565b936108ff6040519586610238565b81855260208086019260051b82010192831161012e57602001905b828210610928575050505090565b8135815290830190830161091a565b9080601f8301121561012e578160206105109335910161027b565b3461012e5760a036600319011261012e5761096b610118565b610973610132565b9060443567ffffffffffffffff80821161012e57610996600492369084016108d7565b9260643582811161012e576109ae90369085016108d7565b9160843590811161012e576109c69036908501610937565b936109d18233611796565b6001600160a01b0386811695908615610b99578316958615610b835782518551808203610b5e5750505f5b8351811015610acc578060051b6020808287010151918801015190610a4187610a2c835f525f60205260405f2090565b9060018060a01b03165f5260205260405f2090565b54828110610a8e57610a7e8c610a2c859460019796610a869503610a708d610a2c845f525f60205260405f2090565b555f525f60205260405f2090565b9182546116b6565b9055016109fc565b604080516303dee4c560e01b81526001600160a01b038a16818d01908152602081019390935290820193909352606081019190915281906080010390fd5b50610b2292888587938a60018551145f14610b245760208581015187820151604080519283529282015233917fc3d58168c5ae7397731d063d5bbf3d657854427343f4c083240f7aacaa2d0f6291a45b33611da9565b005b6040517f4a39dc06d4c0dbc64b70af90fd698a233a518aa5d07e595d983b8c0526c8f7fb339180610b568a8a83611afd565b0390a4610b1c565b60408051635b05999160e01b8152808a01938452602084019290925290918291010390fd5b604051626a0d4560e21b81525f81880152602490fd5b604051632bfa23e760e11b81525f81880152602490fd5b3461012e57602036600319011261012e576004355f526006602052610c0a60405f20610bdb81610417565b90600181015490600281015490600360018060a01b0391015416906040519485946080865260808601906104da565b926020850152604084015260608301520390f35b9081518082526020808093019301915f5b828110610c3d575050505090565b835185529381019392810192600101610c2f565b906020610510928181520190610c1e565b3461012e57604036600319011261012e5760043567ffffffffffffffff80821161012e573660238301121561012e578160040135610c9f816108bf565b92610cad6040519485610238565b8184526020916024602086019160051b8301019136831161012e57602401905b828210610d06578560243586811161012e5761056c91610cf4610cfa9236906004016108d7565b90611382565b60405191829182610c51565b838091610d1284610148565b815201910190610ccd565b3461012e575f36600319011261012e57610d3561141d565b600380546001600160a01b031981169091555f906001600160a01b03167f8be0079c531659141344cd1fd0a4f28419497f9722a3daafe3b4186f6b6457e08280a3005b3461012e57608036600319011261012e57610d91610118565b60643567ffffffffffffffff811161012e57610db1903690600401610937565b90610dba61141d565b6001600160a01b038116908115610f1257610df96044356024359160405192600184526020840152604083019160018352606084015260808301604052565b938151855190818103610ef05750505f5b8251811015610e47578060019160051b610e3f610a7e87610a2c602080868b010151958d010151945f525f60205260405f2090565b905501610e0a565b50926020610b229592819260018251145f14610eb5575f838301517fc3d58168c5ae7397731d063d5bbf3d657854427343f4c083240f7aacaa2d0f62610ea58689015160405191829133958360209093929193604081019481520152565b0390a45b01519101519133611bc9565b5f6040517f4a39dc06d4c0dbc64b70af90fd698a233a518aa5d07e595d983b8c0526c8f7fb339180610ee88a8883611afd565b0390a4610ea9565b604051635b05999160e01b815260048101919091526024810191909152604490fd5b604051632bfa23e760e11b81525f6004820152602490fd5b3461012e575f36600319011261012e576003546040516001600160a01b039091168152602090f35b3461012e575f36600319011261012e576040515f600554610f72816103df565b808452906020906001908181169081156105c95750600114610f9e5761056c8561056081870382610238565b60055f90815293507f036b6384b5eca791c62761152d0c79bb0604c104a5fb6f4eb0703f3154bb3db05b838510610fe4575050505081016020016105608261056c610550565b8054868601840152938201938101610fc8565b3461012e57604036600319011261012e57611010610118565b602435801515810361012e5733156110ab576001600160a01b03821691821561109457335f9081526001602052604090206110629183916110519190610a2c565b9060ff801983541691151516179055565b604051901515815233907f17307eab39ab6107e8899845ad3d59bd9653f200f220920489ca2b5937696c3190602090a3005b60405162ced3e160e81b81525f6004820152602490fd5b604051631f18c42760e11b81525f6004820152602490fd5b3461012e57604036600319011261012e57602060ff6111136110e3610118565b6110eb610132565b6001600160a01b039182165f9081526001865260408082209290931681526020919091522090565b54166040519015158152f35b3461012e5760a036600319011261012e57611138610118565b611140610132565b60843567ffffffffffffffff811161012e57611160903690600401610937565b9061116b8333611796565b6001600160a01b0381811615610f12578316156111bc57610b22926111b46064356044359160405192600184526020840152604083019160018352606084015260808301604052565b929091611929565b604051626a0d4560e21b81525f6004820152602490fd5b3461012e57602036600319011261012e576111ec610118565b6111f461141d565b6001600160a01b0390811690811561124757600354826bffffffffffffffffffffffff60a01b821617600355167f8be0079c531659141344cd1fd0a4f28419497f9722a3daafe3b4186f6b6457e05f80a3005b604051631e4fbdf760e01b81525f6004820152602490fd5b906040516080810181811067ffffffffffffffff82111761025a576040526060819361128a81610417565b83526001810154602084015260028101546040840152600301546001600160a01b0316910152565b6004545f92916112c1826103df565b9160019081811690811561132b57506001146112dc57505050565b909192935060045f527f8a35acfbc15ff81a39ae7d344fd709f28e8600b4aa8c65c6b64bfe7fe36bd19b905f915b848310611318575050500190565b818160209254858701520192019161130a565b60ff191683525050811515909102019150565b90611351602092828151948592016104b9565b0190565b634e487b7160e01b5f52603260045260245ffd5b805182101561137d5760209160051b010190565b611355565b91909180518351808203610ef05750508051906113b76113a1836108bf565b926113af6040519485610238565b8084526108bf565b60209190601f190136848401375f5b815181101561141557600581901b8281018401519087018401515f908152602081815260408083206001600160a01b03909416835292905220546001919061140e8287611369565b52016113c6565b509193505050565b6003546001600160a01b0316330361143157565b60405163118cdaa760e01b8152336004820152602490fd5b601f8111611455575050565b60025f527f405787fa12a823e0f2b7631cc41b3ba8828b3321ca811111fa75cd3aa3bb5ace906020601f840160051c830193106114ac575b601f0160051c01905b8181106114a1575050565b5f8155600101611496565b909150819061148d565b604051906020820182811067ffffffffffffffff82111761025a576040525f8252565b6114e3602a61025f565b906114f16040519283610238565b602a825281601f19611503602a61025f565b0190602036910137565b906115178261025f565b6115246040519182610238565b8281528092611503601f199161025f565b805f917a184f03e93ff9f4daa797ed6e38ed64bf6a1f01000000000000000080821015611669575b506d04ee2d6d415b85acef81000000008083101561165a575b50662386f26fc100008083101561164b575b506305f5e1008083101561163c575b506127108083101561162d575b50606482101561161d575b600a80921015611613575b6001908160216115cc6001870161150d565b95860101905b6115de575b5050505090565b5f19019083906f181899199a1a9b1b9c1cb0b131b232b360811b8282061a83530491821561160e579190826115d2565b6115d7565b91600101916115ba565b91906064600291049101916115af565b6004919392049101915f6115a4565b6008919392049101915f611597565b6010919392049101915f611588565b6020919392049101915f611576565b60409350810491505f61155d565b634e487b7160e01b5f52601160045260245ffd5b600281901b91906001600160fe1b038116036116a357565b611677565b90600282018092116116a357565b919082018092116116a357565b80511561137d5760200190565b80516001101561137d5760210190565b90815181101561137d570160200190565b80156116a3575f190190565b806117066114d9565b916030611712846116c3565b53607861171e846116d0565b5360295b600181116117545750611733575090565b60405163e22e27eb60e01b8152600481019190915260146024820152604490fd5b90600f811690601082101561137d57611791916f181899199a1a9b1b9c1cb0b131b232b360811b901a61178784876116e0565b5360041c916116f1565b611722565b6001600160a01b038181169216908183141590816117d6575b506117b8575050565b604492506040519163711bec9160e11b835260048301526024820152fd5b5f8381526001602090815260408083206001600160a01b0390941683529290522060ff91505416155f6117af565b9081511561191f5761182861182361181c84516116a8565b6003900490565b61168b565b604051927f4142434445464748494a4b4c4d4e4f505152535455565758595a616263646566601f52603f907f6768696a6b6c6d6e6f707172737475767778797a303132333435363738392b2f603f526020850191818251830160208101918251935f84525b8282106118e0575050505251602092919060039006600181146118cb576002146118be575b50808452830101604052565b603d905f1901535f6118b2565b50603d90815f1982015360011901535f6118b2565b909195600490600380940193838551818160121c165184538181600c1c16516001850153818160061c165160028501531651908201530195919061188d565b90506105106114b6565b949190918151845190818103610ef05750505f5b8251811015611a2257600581901b83810160209081015191870101516001600160a01b03929186908a85166119a2575b6001948216611980575b5050500161193d565b61199891610a2c610a7e925f525f60205260405f2090565b90555f8581611977565b91929390506119bc8a610a2c845f525f60205260405f2090565b548381106119eb57918791846001969594036119e38d610a2c855f525f60205260405f2090565b55945061196d565b6040516303dee4c560e01b81526001600160a01b038c16600482015260248101919091526044810184905260648101839052608490fd5b5094919392909360018551145f14611ab2576020858101518382015160408051928352928201526001600160a01b03838116929086169133917fc3d58168c5ae7397731d063d5bbf3d657854427343f4c083240f7aacaa2d0f6291a45b6001600160a01b038116611a95575b5050505050565b602080611aa89601519201519233611cc2565b5f80808080611a8e565b6040516001600160a01b03828116919085169033907f4a39dc06d4c0dbc64b70af90fd698a233a518aa5d07e595d983b8c0526c8f7fb9080611af5888c83611afd565b0390a4611a7f565b9091611b1461051093604084526040840190610c1e565b916020818403910152610c1e565b9081602091031261012e5751610510816101a4565b909260a0926105109594600180861b031683525f60208401526040830152606082015281608082015201906104da565b919261051095949160a094600180871b0380921685521660208401526040830152606082015281608082015201906104da565b3d15611bc4573d90611bab8261025f565b91611bb96040519384610238565b82523d5f602084013e565b606090565b9293919093843b611bdb575050505050565b602091611bfe604051948593849363f23a6e6160e01b9889865260048601611b37565b03815f6001600160a01b0388165af15f9181611c91575b50611c545782611c23611b9a565b8051919082611c4d57604051632bfa23e760e11b81526001600160a01b0383166004820152602490fd5b6020915001fd5b6001600160e01b03191603611c6e57505f80808080611a8e565b604051632bfa23e760e11b81526001600160a01b03919091166004820152602490fd5b611cb491925060203d602011611cbb575b611cac8183610238565b810190611b22565b905f611c15565b503d611ca2565b939290949194853b611cd7575b505050505050565b611cfa602093604051958694859463f23a6e6160e01b998a875260048701611b67565b03815f6001600160a01b0388165af15f9181611d3a575b50611d1f5782611c23611b9a565b6001600160e01b03191603611c6e57505f8080808080611ccf565b611d5491925060203d602011611cbb57611cac8183610238565b905f611d11565b93906105109593611d8d91611d9b9460018060a01b03809216885216602087015260a0604087015260a0860190610c1e565b908482036060860152610c1e565b9160808184039101526104da565b939290949194853b611dbd57505050505050565b611cfa602093604051958694859463bc197c8160e01b998a875260048701611d5b56fea2646970667358221220a230fd943ae1ccb7ad0f87f2eccd69ab03fe6e82b266cbc20d35a244dfdc120264736f6c63430008180033",
  "linkReferences": {},
  "deployedLinkReferences": {}
}