{
  "_format": "hh-sol-artifact-1",
  "contractName": "InsuranceFund",
  "sourceName": "contracts/InsuranceFund.sol",
  "abi": [
    {
      "inputs": [
        {
          "internalType": "address",
          "name": "_upnTokenAddress",
          "type": "address"
        }
      ],
      "stateMutability": "nonpayable",
      "type": "constructor"
    },
    {
      "inputs": [
        {
          "internalType": "address",
          "name": "owner",
          "type": "address"
        }
      ],
      "name": "OwnableInvalidOwner",
      "type": "error"
    },
    {
      "inputs": [
        {
          "internalType": "address",
          "name": "account",
          "type": "address"
        }
      ],
      "name": "OwnableUnauthorizedAccount",
      "type": "error"
    },
    {
      "inputs": [],
      "name": "ReentrancyGuardReentrantCall",
      "type": "error"
    },
    {
      "anonymous": false,
      "inputs": [
        {
          "indexed": false,
          "internalType": "uint256",
          "name": "claimId",
          "type": "uint256"
        },
        {
          "indexed": false,
          "internalType": "bool",
          "name": "approved",
          "type": "bool"
        }
      ],
      "name": "ClaimResolved",
      "type": "event"
    },
    {
      "anonymous": false,
      "inputs": [
        {
          "indexed": false,
          "internalType": "uint256",
          "name": "claimId",
          "type": "uint256"
        },
        {
          "indexed": false,
          "internalType": "address",
          "name": "claimant",
          "type": "address"
        },
        {
          "indexed": false,
          "internalType": "uint256",
          "name": "amount",
          "type": "uint256"
        },
        {
          "indexed": false,
          "internalType": "string",
          "name": "reason",
          "type": "string"
        }
      ],
      "name": "ClaimSubmitted",
      "type": "event"
    },
    {
      "anonymous": false,
      "inputs": [
        {
          "indexed": true,
          "internalType": "address",
          "name": "previousOwner",
          "type": "address"
        },
        {
          "indexed": true,
          "internalType": "address",
          "name": "newOwner",
          "type": "address"
        }
      ],
      "name": "OwnershipTransferred",
      "type": "event"
    },
    {
      "inputs": [],
      "name": "claimCounter",
      "outputs": [
        {
          "internalType": "uint256",
          "name": "",
          "type": "uint256"
        }
      ],
      "stateMutability": "view",
      "type": "function"
    },
    {
      "inputs": [
        {
          "internalType": "uint256",
          "name": "",
          "type": "uint256"
        }
      ],
      "name": "claims",
      "outputs": [
        {
          "internalType": "uint256",
          "name": "id",
          "type": "uint256"
        },
        {
          "internalType": "address",
          "name": "claimant",
          "type": "address"
        },
        {
          "internalType": "uint256",
          "name": "amount",
          "type": "uint256"
        },
        {
          "internalType": "string",
          "name": "reason",
          "type": "string"
        },
        {
          "internalType": "bool",
          "name": "resolved",
          "type": "bool"
        },
        {
          "internalType": "uint256",
          "name": "votesFor",
          "type": "uint256"
        },
        {
          "internalType": "uint256",
          "name": "votesAgainst",
          "type": "uint256"
        }
      ],
      "stateMutability": "view",
      "type": "function"
    },
    {
      "inputs": [],
      "name": "owner",
      "outputs": [
        {
          "internalType": "address",
          "name": "",
          "type": "address"
        }
      ],
      "stateMutability": "view",
      "type": "function"
    },
    {
      "inputs": [],
      "name": "renounceOwnership",
      "outputs": [],
      "stateMutability": "nonpayable",
      "type": "function"
    },
    {
      "inputs": [
        {
          "internalType": "uint256",
          "name": "claimId",
          "type": "uint256"
        }
      ],
      "name": "resolveClaim",
      "outputs": [],
      "stateMutability": "nonpayable",
      "type": "function"
    },
    {
      "inputs": [
        {
          "internalType": "uint256",
          "name": "amount",
          "type": "uint256"
        },
        {
          "internalType": "string",
          "name": "reason",
          "type": "string"
        }
      ],
      "name": "submitClaim",
      "outputs": [],
      "stateMutability": "nonpayable",
      "type": "function"
    },
    {
      "inputs": [
        {
          "internalType": "address",
          "name": "newOwner",
          "type": "address"
        }
      ],
      "name": "transferOwnership",
      "outputs": [],
      "stateMutability": "nonpayable",
      "type": "function"
    },
    {
      "inputs": [],
      "name": "upnToken",
      "outputs": [
        {
          "internalType": "contract UpNextToken",
          "name": "",
          "type": "address"
        }
      ],
      "stateMutability": "view",
      "type": "function"
    },
    {
      "inputs": [
        {
          "internalType": "uint256",
          "name": "claimId",
          "type": "uint256"
        },
        {
          "internalType": "bool",
          "name": "approve",
          "type": "bool"
        }
      ],
      "name": "voteOnClaim",
      "outputs": [],
      "stateMutability": "nonpayable",
      "type": "function"
    },
    {
      "stateMutability": "payable",
      "type": "receive"
    }
  ],
  "bytecode": "0x6080346100e657601f610abd38819003918201601f19168301916001600160401b038311848410176100ea578084926020946040528339810103126100e657516001600160a01b0390818116908190036100e65733156100ce575f5460018060a01b03199033828216175f55604051933391167f8be0079c531659141344cd1fd0a4f28419497f9722a3daafe3b4186f6b6457e05f80a360017f9b779b17422d0df92223018b32b4d1fa46e071723d6817e2486d003becc55f005560015416176001556109be90816100ff8239f35b604051631e4fbdf760e01b81525f6004820152602490fd5b5f80fd5b634e487b7160e01b5f52604160045260245ffdfe60406080815260048036101561001e575b5050361561001c575f80fd5b005b5f3560e01c80630ed6a89c1461071f57806345b46525146104e45780634efa8f17146104c6578063715018a61461046f5780638da5cb5b14610448578063a888c2cd146102de578063c7e2daf2146102b6578063f2fde38b146102265763fdffbb28036100105734610222576020366003190112610222578035907f9b779b17422d0df92223018b32b4d1fa46e071723d6817e2486d003becc55f009160028354146102135760028355805f526003602052835f2091808301926100e660ff855416156108f7565b6006810154600782015410156101db5760028101546032810290808204603214901517156101c85760649004918247106101905750600101545f918291829182916001600160a01b0316828215610187575bf11561017d57837fb96a745cc9b77f50219b8e380073ef1912e87ae66ce099a72ce1029259093ff19160019551908152856020820152a15b805460ff19168317905555005b83513d5f823e3d90fd5b506108fc610138565b606490602088519162461bcd60e51b83528201526012602482015271496e73756666696369656e742066756e647360701b6044820152fd5b601183634e487b7160e01b5f525260245ffd5b5050837fb96a745cc9b77f50219b8e380073ef1912e87ae66ce099a72ce1029259093ff191600195519081525f6020820152a1610170565b508251633ee5aeb560e01b8152fd5b5f80fd5b509034610222576020366003190112610222576001600160a01b038235818116939192908490036102225761025961095d565b83156102a05750505f54826bffffffffffffffffffffffff60a01b8216175f55167f8be0079c531659141344cd1fd0a4f28419497f9722a3daafe3b4186f6b6457e05f80a3005b905f6024925191631e4fbdf760e01b8352820152fd5b8234610222575f3660031901126102225760015490516001600160a01b039091168152602090f35b509034610222576020806003193601126102225782355f5260038152815f209283549360019260018060a01b03600183015416926002830154906003840187519687915f9181549161032f83610889565b92838652886001821691825f146104225750506001146103e1575b50505060ff9291610365919a98979a999695949903876108c1565b83015416956007600684015493015493805198899788528388015286015260e060608601528351938460e08701525f5b8581106103c957505050610100945f8685870101521515608085015260a084015260c0830152601f80199101168101030190f35b81810183015189820161010001528896508201610395565b8793505f92919252825f20915f925b828410610408575050508201018161036560ff61034a565b849295829585835492010152019101909286928a946103f0565b60ff19168782015293151560051b86019093019350849250610365915060ff905061034a565b8234610222575f366003190112610222575f5490516001600160a01b039091168152602090f35b34610222575f3660031901126102225761048761095d565b5f80546001600160a01b0319811682556001600160a01b03167f8be0079c531659141344cd1fd0a4f28419497f9722a3daafe3b4186f6b6457e08280a3005b8234610222575f366003190112610222576020906002549051908152f35b503461022257816003193601126102225780359167ffffffffffffffff60248035828111610222573660238201121561022257808501359283116102225736828483010111610222576002545f19959086811461070d5760018091019081600255815f5260209760038952875f20928355818301336bffffffffffffffffffffffff60a01b82541617905589600284015560038301916105848354610889565b601f81116106c7575b505f601f891160011461063557928795928980809a947f95081ad7e72ba2e9a9457b1b8f0b632d020ea774fd5da576c1202d59904182949f979560a09e9d9b99965f94610628575b50501b918960031b1c19161790555b0160ff198154169055600254958051988997885233908801528601526080606086015282608086015201848401375f828201840152601f01601f19168101030190a1005b8a0101359250895f6105d5565b5f8481528b8120929390601f198b16905b8181106106b05750927f95081ad7e72ba2e9a9457b1b8f0b632d020ea774fd5da576c1202d59904182949d95928a8c9b9996938c60a09f9e9c9a9710610696575b5050505087811b0190556105e4565b60f88c60031b161c1991890101351690555f808881610687565b8984018b0135855593850193928d01928d01610646565b835f528a5f20601f8a0160051c8101918c8b10610703575b601f0160051c019082905b8281106106f857505061058d565b5f81550182906106ea565b90915081906106df565b83601183634e487b7160e01b5f52525ffd5b50903461022257806003193601126102225760243580151581036102225782355f5260209160038352805f209261075c60ff8686015416156108f7565b6005840190335f5281815260ff835f2054166108575760015483516309ab24eb60e41b8152338189015296908290889060249082906001600160a01b03165afa96871561084d575f9761081e575b5086156107eb5750335f52525f20600160ff198254161790555f146107dc5760066107d8910191825461093c565b9055005b60076107d8910191825461093c565b60649184519162461bcd60e51b8352820152600f60248201526e2737903b37ba34b733903837bbb2b960891b6044820152fd5b9096508181813d8311610846575b61083681836108c1565b810103126102225751955f6107aa565b503d61082c565b84513d5f823e3d90fd5b8560649184519162461bcd60e51b8352820152600d60248201526c105b1c9958591e481d9bdd1959609a1b6044820152fd5b90600182811c921680156108b7575b60208310146108a357565b634e487b7160e01b5f52602260045260245ffd5b91607f1691610898565b90601f8019910116810190811067ffffffffffffffff8211176108e357604052565b634e487b7160e01b5f52604160045260245ffd5b156108fe57565b60405162461bcd60e51b815260206004820152601660248201527510db185a5b48185b1c9958591e481c995cdbdb1d995960521b6044820152606490fd5b9190820180921161094957565b634e487b7160e01b5f52601160045260245ffd5b5f546001600160a01b0316330361097057565b60405163118cdaa760e01b8152336004820152602490fdfea2646970667358221220d898f6c0b0db28963eaa067022dfd56f30595b5b248a697fcc228aa738e5e47164736f6c63430008180033",
  "linkReferences": {},
  "deployedLinkReferences": {}
}