{
  "_format": "hh-sol-artifact-1",
  "contractName": "MilestoneEscrow",
  "sourceName": "contracts/MilestoneEscrow.sol",
  "abi": [
    {
      "inputs": [
        {
          "internalType": "address",
          "name": "_talent",
          "type": "address"
        }
      ],
      "stateMutability": "nonpayable",
      "type": "constructor"
    },
    {
      "inputs": [
        {
          "internalType": "address",
          "name": "owner",
          "type": "address"
        }
      ],
      "name": "OwnableInvalidOwner",
      "type": "error"
    },
    {
      "inputs": [
        {
          "internalType": "address",
          "name": "account",
          "type": "address"
        }
      ],
      "name": "OwnableUnauthorizedAccount",
      "type": "error"
    },
    {
      "inputs": [],
      "name": "ReentrancyGuardReentrantCall",
      "type": "error"
    },
    {
      "anonymous": false,
      "inputs": [
        {
          "indexed": false,
          "internalType": "uint256",
          "name": "id",
          "type": "uint256"
        },
        {
          "indexed": false,
          "internalType": "string",
          "name": "description",
          "type": "string"
        },
        {
          "indexed": false,
          "internalType": "uint256",
          "name": "amount",
          "type": "uint256"
        }
      ],
      "name": "MilestoneCreated",
      "type": "event"
    },
    {
      "anonymous": false,
      "inputs": [
        {
          "indexed": false,
          "internalType": "uint256",
          "name": "id",
          "type": "uint256"
        },
        {
          "indexed": false,
          "internalType": "uint256",
          "name": "amount",
          "type": "uint256"
        }
      ],
      "name": "MilestoneReleased",
      "type": "event"
    },
    {
      "anonymous": false,
      "inputs": [
        {
          "indexed": false,
          "internalType": "uint256",
          "name": "id",
          "type": "uint256"
        },
        {
          "indexed": false,
          "internalType": "address",
          "name": "voter",
          "type": "address"
        }
      ],
      "name": "MilestoneVoted",
      "type": "event"
    },
    {
      "anonymous": false,
      "inputs": [
        {
          "indexed": true,
          "internalType": "address",
          "name": "previousOwner",
          "type": "address"
        },
        {
          "indexed": true,
          "internalType": "address",
          "name": "newOwner",
          "type": "address"
        }
      ],
      "name": "OwnershipTransferred",
      "type": "event"
    },
    {
      "inputs": [
        {
          "internalType": "string",
          "name": "description",
          "type": "string"
        },
        {
          "internalType": "uint256",
          "name": "amount",
          "type": "uint256"
        }
      ],
      "name": "createMilestone",
      "outputs": [],
      "stateMutability": "nonpayable",
      "type": "function"
    },
    {
      "inputs": [
        {
          "internalType": "address",
          "name": "investor",
          "type": "address"
        },
        {
          "internalType": "uint256",
          "name": "amount",
          "type": "uint256"
        }
      ],
      "name": "deposit",
      "outputs": [],
      "stateMutability": "payable",
      "type": "function"
    },
    {
      "inputs": [
        {
          "internalType": "address",
          "name": "",
          "type": "address"
        }
      ],
      "name": "investorStakes",
      "outputs": [
        {
          "internalType": "uint256",
          "name": "",
          "type": "uint256"
        }
      ],
      "stateMutability": "view",
      "type": "function"
    },
    {
      "inputs": [
        {
          "internalType": "uint256",
          "name": "",
          "type": "uint256"
        }
      ],
      "name": "milestones",
      "outputs": [
        {
          "internalType": "uint256",
          "name": "id",
          "type": "uint256"
        },
        {
          "internalType": "string",
          "name": "description",
          "type": "string"
        },
        {
          "internalType": "uint256",
          "name": "amount",
          "type": "uint256"
        },
        {
          "internalType": "bool",
          "name": "released",
          "type": "bool"
        },
        {
          "internalType": "uint256",
          "name": "votes",
          "type": "uint256"
        }
      ],
      "stateMutability": "view",
      "type": "function"
    },
    {
      "inputs": [],
      "name": "owner",
      "outputs": [
        {
          "internalType": "address",
          "name": "",
          "type": "address"
        }
      ],
      "stateMutability": "view",
      "type": "function"
    },
    {
      "inputs": [
        {
          "internalType": "uint256",
          "name": "milestoneId",
          "type": "uint256"
        }
      ],
      "name": "releaseMilestone",
      "outputs": [],
      "stateMutability": "nonpayable",
      "type": "function"
    },
    {
      "inputs": [],
      "name": "renounceOwnership",
      "outputs": [],
      "stateMutability": "nonpayable",
      "type": "function"
    },
    {
      "inputs": [],
      "name": "talent",
      "outputs": [
        {
          "internalType": "address",
          "name": "",
          "type": "address"
        }
      ],
      "stateMutability": "view",
      "type": "function"
    },
    {
      "inputs": [],
      "name": "totalDeposited",
      "outputs": [
        {
          "internalType": "uint256",
          "name": "",
          "type": "uint256"
        }
      ],
      "stateMutability": "view",
      "type": "function"
    },
    {
      "inputs": [],
      "name": "totalMilestones",
      "outputs": [
        {
          "internalType": "uint256",
          "name": "",
          "type": "uint256"
        }
      ],
      "stateMutability": "view",
      "type": "function"
    },
    {
      "inputs": [
        {
          "internalType": "address",
          "name": "newOwner",
          "type": "address"
        }
      ],
      "name": "transferOwnership",
      "outputs": [],
      "stateMutability": "nonpayable",
      "type": "function"
    },
    {
      "inputs": [
        {
          "internalType": "uint256",
          "name": "milestoneId",
          "type": "uint256"
        }
      ],
      "name": "voteOnMilestone",
      "outputs": [],
      "stateMutability": "nonpayable",
      "type": "function"
    },
    {
      "stateMutability": "payable",
      "type": "receive"
    }
  ],
  "bytecode": "0x6080346100e657601f610aea38819003918201601f19168301916001600160401b038311848410176100ea578084926020946040528339810103126100e657516001600160a01b0390818116908190036100e65733156100ce575f5460018060a01b03199033828216175f55604051933391167f8be0079c531659141344cd1fd0a4f28419497f9722a3daafe3b4186f6b6457e05f80a360017f9b779b17422d0df92223018b32b4d1fa46e071723d6817e2486d003becc55f005560015416176001556109eb90816100ff8239f35b604051631e4fbdf760e01b81525f6004820152602490fd5b5f80fd5b634e487b7160e01b5f52604160045260245ffdfe6080604090808252600480361015610021575b505050361561001f575f80fd5b005b5f3560e01c918263317debf5146107895750816339a4e2d21461076b57816347e7ef24146106d7578163715018a6146106805781637a6f4518146105685781638da5cb5b14610541578163b473f19914610320578163b57cd9d7146102e9578163c4daa593146102c1578163e89e4ed614610161578163f2fde38b146100d4575063ff50abdc146100b3578080610012565b346100d0575f3660031901126100d0576020906002549051908152f35b5f80fd5b9050346100d05760203660031901126100d0576100ef6108cf565b906100f861098a565b6001600160a01b0391821692831561014b5750505f54826bffffffffffffffffffffffff60a01b8216175f55167f8be0079c531659141344cd1fd0a4f28419497f9722a3daafe3b4186f6b6457e05f80a3005b905f6024925191631e4fbdf760e01b8352820152fd5b9050346100d0576020806003193601126100d05781355f52818152825f2080549060019260018201958051945f9088549861019b8a6108e5565b808952996001811690811561029f5750600114610267575b5050859003601f01601f19908116860197509567ffffffffffffffff8811868910176102545750928695928487809652600282015490600560ff60038501541693015493875260a0858801528751948560a08901525f5b86811061023d57505060c0975090849392915f89601f978a01015287015215156060860152608085015201168101030190f35b808a018201518b820160c001528a9850810161020a565b604190634e487b7160e01b5f525260245ffd5b5f908152848120909992505b828a1061028c575050508185969786010187965f6101b3565b8054888b01860152988401988101610273565b60ff191689870152509798899850151560051b8701840191508690505f6101b3565b82346100d0575f3660031901126100d05760015490516001600160a01b039091168152602090f35b82346100d05760203660031901126100d0576020906001600160a01b0361030e6108cf565b165f5260058252805f20549051908152f35b9050346100d057816003193601126100d057803567ffffffffffffffff8082116100d057366023830112156100d057818301359081116100d057602493368583850101116100d05784359061037361098a565b600380545f1997919088811461052f57600180910190818355815f526020988952845f20918255808201906103a882546108e5565b601f81116104e9575b505f601f8911600114610457579284927fe6f89d35e2b86a44581f593e60fd235cd13f8f8344a1ec2bf4aefea90e3ddfb39c8a80809b9a9997958860809f9e9a978f5f9561044a575b5050501b9188861b1c19161790555b8660028201550160ff198154169055549560608451998a98895288015282606088015201868601375f848401860152830152601f01601f19168101030190a1005b0101359250885f8f6103fa565b601f1989169b835f528b5f209c5f5b8181106104d25750927fe6f89d35e2b86a44581f593e60fd235cd13f8f8344a1ec2bf4aefea90e3ddfb39d8c898d9c9b9a989560809f9e9a98958b8a99106104b9575b505050505086811b019055610409565b60f88c8a1b161c19920101351690555f8b8782806104a9565b8c84018901358f559d84019d928d01928d01610466565b825f528a5f20601f8a0160051c8101918c8b10610525575b601f0160051c019082905b82811061051a5750506103b1565b5f815501829061050c565b9091508190610501565b82601189634e487b7160e01b5f52525ffd5b82346100d0575f3660031901126100d0575f5490516001600160a01b039091168152602090f35b82346100d0576020806003193601126100d057823590815f52838152825f2061059860ff6003830154161561091d565b848101335f5280835260ff855f20541661064d57335f5260058352845f205415610618577f6adeb3d71effb4aa3e5694a1e198537fdee35acec121631b4f4500642f9528969550335f528252835f20600160ff19825416179055600582526106096005855f20549201918254610969565b905582519182523390820152a1005b845162461bcd60e51b8152808701849052600f60248201526e2737ba1030b71034b73b32b9ba37b960891b6044820152606490fd5b845162461bcd60e51b8152808701849052600d60248201526c105b1c9958591e481d9bdd1959609a1b6044820152606490fd5b346100d0575f3660031901126100d05761069861098a565b5f80546001600160a01b0319811682556001600160a01b03167f8be0079c531659141344cd1fd0a4f28419497f9722a3daafe3b4186f6b6457e08280a3005b9050816003193601126100d0576106ec6108cf565b602435918234036107285750916107239260018060a01b03165f5260056020525f20610719828254610969565b9055600254610969565b600255005b606490602085519162461bcd60e51b8352820152601860248201527f496e636f7272656374206465706f73697420616d6f756e7400000000000000006044820152fd5b82346100d0575f3660031901126100d0576020906003549051908152f35b9150346100d05760203660031901126100d0578035907f9b779b17422d0df92223018b32b4d1fa46e071723d6817e2486d003becc55f009260028454146108c3575060028355815f5280602052835f206003810180546107ec60ff82161561091d565b600583015460025460011c10610803575b60018655005b60ff191660011790556002018054909147821161088b57506001545f918291829182916001600160a01b0316828215610882575bf1156108785754835191825260208201526001927f9e069181c12760c2cd0078ed4facdbe1f3614543b0fbff5dbcac3cbc61a0b64e91a15f808080806107fd565b83513d5f823e3d90fd5b506108fc610837565b606490602087519162461bcd60e51b83528201526012602482015271496e73756666696369656e742066756e647360701b6044820152fd5b633ee5aeb560e01b8152fd5b600435906001600160a01b03821682036100d057565b90600182811c92168015610913575b60208310146108ff57565b634e487b7160e01b5f52602260045260245ffd5b91607f16916108f4565b1561092457565b60405162461bcd60e51b815260206004820152601a60248201527f4d696c6573746f6e6520616c72656164792072656c65617365640000000000006044820152606490fd5b9190820180921161097657565b634e487b7160e01b5f52601160045260245ffd5b5f546001600160a01b0316330361099d57565b60405163118cdaa760e01b8152336004820152602490fdfea26469706673582212209ed4810e5462d0af7dbe1caccc060bbc07537dcdfdddb3be29d44518551ac12d64736f6c63430008180033",
  "linkReferences": {},
  "deployedLinkReferences": {}
}